:020000040000FA
:100000000C9462000C948A000C948A000C948A0070
:100010000C948A000C948A000C948A000C943F0380
:100020000C948A000C948A000C948A000C9464034B
:100030000C948A000C948A000C948A000C948A0018
:100040000C94F5020C948A000C948A000C948A009B
:100050000C948A000C948A000C948A000C948A00F8
:100060000C948A000C948A00000000080002010031
:100070000003040700000000000000000000000072
:10008000240027002A000000000023002600290089
:1000900000000000250028002B00040404040404D0
:1000A0000404020202020202030303030303010227
:1000B00004081020408001020408102001020408F6
:1000C00010200A0611241FBECFEFD8E0DEBFCDBF3F
:1000D00011E0A0E0B1E0EAE5FDE002C005900D927C
:1000E000A030B107D9F721E0A0E0B1E001C01D9236
:1000F000A037B207E1F710E0C2E6D0E004C02197D4
:10010000FE010E94A506C136D107C9F70E9420044E
:100110000C94AB060C940000CF93DF93DC01862F88
:1001200090E0FC01E255FF4F549114965C931497B4
:10013000242F30E0F901E255FF4FE4911596EC933E
:10014000159786569F4FFC017491E72FF0E0EE0F54
:10015000FF1FE057FF4FC591D4911796DC93CE93C4
:100160001697F901E656FF4FE491F0E0EE0FFF1FFE
:10017000EA57FF4F2591349119963C932E93189787
:10018000FC018491E82FF0E0EE0FFF1FE458FF4FD1
:10019000C591D4911B96DC93CE931A9781E064139A
:1001A00080E052968C9352978DE89FE61D969C9323
:1001B0008E931C97E8815E2B58831696ED91FC91E7
:1001C0001797908114968C91809589238083DF9175
:1001D000CF910895CF92DF92EF92FF92DC01A0328F
:1001E00082E0B807D4F5A53BB10514F0A4EBB0E06C
:1001F00040916E0128E830E0241B310947FD33951A
:10020000220F331F220F331F6901330FEE08FF083F
:1002100040916F0128E532E0241B310947FD3395F9
:10022000220F331F220F331F032E000C440B550BDC
:100230002C193D094E095F09B7FF02C0B0E0A0E0EC
:100240000E94600624EB30E040E050E00E94360659
:10025000C20ED31EE41EF51ED601E0916D01EC30F6
:1002600080F520916E0188E890E0821B910927FDBE
:100270009395880F991F880F991FA817B90784F0C5
:1002800020916F0188E592E0821B910927FD9395EB
:10029000880F991F880F991FA817B9070CF4CD0173
:1002A0000297880F991F4FB7F8942E2F30E0F9016D
:1002B000EE0FFF1FE20FF31FE75BFE4F9283818378
:1002C0004FBFFF90EF90DF90CF900895833081F083
:1002D00028F4813099F08230A9F008958730A9F090
:1002E0008830C9F08430B1F4809180008F7D03C0E4
:1002F000809180008F7780938000089584B58F77F8
:1003000084BD089584B58F7DFBCF8091B0008F7739
:100310008093B00008958091B0008F7DF9CF1F9336
:10032000CF93DF93282F30E0F901E859FF4F8491F4
:10033000F901E255FF4FD491F901E656FF4FC49100
:10034000CC23A9F0162F81110E946601EC2FF0E05A
:10035000EE0FFF1FE057FF4FA591B4918FB7F894B0
:10036000EC91111108C0D095DE23DC938FBFDF9193
:10037000CF911F910895DE2BF8CFCF93DF9390E0BC
:10038000FC01E255FF4F249186569F4FFC0184915A
:100390008823D1F090E0880F991FFC01E458FF4FAB
:1003A000A591B491FC01E057FF4FC591D491623003
:1003B00071F49FB7F8943C91822F809583238C939E
:1003C000E8812E2B28839FBFDF91CF9108958FB7AF
:1003D000F894EC912E2B2C938FBFF6CF3FB7F89467
:1003E0008091320190913301A0913401B091350197
:1003F00026B5A89B05C02F3F19F00196A11DB11D80
:100400003FBFBA2FA92F982F8827BC01CD01620FBB
:10041000711D811D911D42E0660F771F881F991F76
:100420004A95D1F708958F929F92AF92BF92CF9243
:10043000DF92EF92FF924B015C010E94EE016B0193
:100440007C010E94EE016C197D098E099F09683EAE
:10045000734081059105A8F321E0821A9108A10853
:10046000B10888EEC80E83E0D81EE11CF11C81148F
:100470009104A104B10429F7FF90EF90DF90CF9091
:10048000BF90AF909F908F9008950F931F93E0912E
:100490004001F0914101808190913A01892B808344
:1004A000E0913C01F0913D01808190913A01892BCE
:1004B00080838BE290E00197F1F7E0913C01F091AD
:1004C0003D01908180913A018095892380838091BC
:1004D0004801882351F0E0914001F0914101908161
:1004E00080913A01809589238083E0913E01F091CB
:1004F0003F01808190913B01892329F090E080E0C9
:100500001F910F9108950E94EE01AB01BC018091F3
:10051000420190914301B0E0A0E08855994EAF4F61
:10052000BF4F840F951FA61FB71F80934401909360
:100530004501A0934601B0934701E0913E01F0913F
:100540003F01808190913B01892381F40E94EE015B
:1005500000914401109145012091460130914701DD
:10056000061717072807390740F7C8CF0E94EE0182
:100570002091420130914301620F731F811D911D33
:100580006093440170934501809346019093470125
:10059000E0913E01F0913F01808190913B018923E0
:1005A00081F00E94EE0100914401109145012091DB
:1005B000460130914701061717072807390740F70A
:1005C0009DCF0E94EE012091420130914301A9018B
:1005D000455051092091440130914501FA01E21B37
:1005E000F30BCF01860F971F8BCF1F920F920FB681
:1005F0000F9211242F933F938F939F93AF93BF93A9
:1006000080912E0190912F01A0913001B091310184
:1006100030912D0123E0230F2D3758F50196A11DB0
:10062000B11D20932D0180932E0190932F01A09353
:100630003001B09331018091320190913301A0914A
:100640003401B09135010196A11DB11D8093320195
:1006500090933301A0933401B0933501BF91AF91D2
:100660009F918F913F912F910F900FBE0F901F90F0
:10067000189526E8230F0296A11DB11DD2CF1F9217
:100680000F920FB60F9211242F933F934F935F93C6
:100690006F937F938F939F93AF93BF93EF93FF934A
:1006A000F0E0E0E00995FF91EF91BF91AF919F914C
:1006B0008F917F916F915F914F913F912F910F900B
:1006C0000FBE0F901F9018951F920F920FB60F92AA
:1006D00011242F933F934F935F936F937F938F9347
:1006E0009F93AF93BF93CF93DF93EF93FF9380914B
:1006F0002B01C0912A01D0E087FF24C01092850011
:100700001092840080912B018F5F80932B01809148
:100710002B01082E000C990B8C179D0724F4809157
:100720002B018C30C4F18091840090918500049657
:1007300080349C4908F47AC08091840090918500AF
:10074000049676C080912B01082E000C990B8C1713
:100750009D07C4F6E0912B018E2FEE0F990BFC0143
:10076000EE0FFF1FE80FF91FE75BFE4F808186FF4A
:10077000C9CFE0912B018E2FEE0F990BFC01EE0FEC
:10078000FF1FE80FF91FE75BFE4F808160E08F736A
:100790000E948F01B7CF2091840030918500E091B5
:1007A0002B018E2FEE0F990BFC01EE0FFF1FE80FB0
:1007B000F91FE75BFE4F81819281820F931F909317
:1007C000890080938800E0912B018E2FEE0F990B0A
:1007D000FC01EE0FFF1FE80FF91FE75BFE4F808162
:1007E00086FF11C0E0912B018E2FEE0F990BFC01BB
:1007F000EE0FFF1FE80FF91FE75BFE4F808161E0FE
:100800008F730E948F01FF91EF91DF91CF91BF9184
:10081000AF919F918F917F916F915F914F913F9198
:100820002F910F900FBE0F901F90189580E49CE9B8
:1008300090938900809388008FEF80932B01E3CF02
:10084000789484B5826084BD84B5816084BD85B5AB
:10085000826085BD85B5816085BD80916E008160B7
:1008600080936E001092810080918100826080935D
:10087000810080918100816080938100809180005F
:100880008160809380008091B10084608093B1008A
:100890008091B00081608093B00080917A00846084
:1008A00080937A0080917A00826080937A008091B0
:1008B0007A00816080937A0080917A0080688093CA
:1008C0007A001092C10062E082E00E94BD0161E006
:1008D00089E00E94BD0161E08AE00E94BD0161E003
:1008E0008BE00E94BD0161E08CE00E94BD0161E0EF
:1008F0008EE00E94BD0180916D018C3008F051C0E6
:1009000061E08DE00E94BD0180916D01282F30E0F3
:10091000F901EE0FFF1FE20FF31FE75BFE4F90811F
:10092000907C9D60908310926E0110926F012CE07C
:10093000622F0E949906829FB001112430E020E0CE
:10094000AB01420F531FFA01EE0FFF1FE40FF51F1B
:10095000E75BFE4F908196FD16C02F5F3F4F2C3016
:10096000310571F781110FC01092800082E08093F1
:1009700081001092850010928400B19A80916F00DE
:10098000826080936F00E0916D018E2F90E0FC01FA
:10099000EE0FFF1FE80FF91FE75BFE4F80818064B9
:1009A0008083B9E38B2E912CA12CB12CC8E52C2E81
:1009B000C2E03C2EC8E8D0E000E010E0EAE6F0E05B
:1009C0008491E0EBF0E0F490ECE9F0E0E490E110E9
:1009D000C4C0F1E0F0932C0164EF71E080E090E09E
:1009E0000E94130280912C01882309F402C10E9405
:1009F0004502BC0190E080E0A50194010E946806D8
:100A0000243131050CF0CCC00E944502BC0190E0BD
:100A100080E0A50194010E946806243131050CF0A4
:100A2000ACC080916F016101C81AD10887FDD394D1
:100A3000CC0CDD1CCC0CDD1C0D2C000CEE08FF08D2
:100A400080916E012E01481A510887FD5394440C81
:100A5000551C440C551C052C000C66087708209189
:100A60006D0190E080E02F3FD1F030E0C901880FA8
:100A7000991F820F931FFC01E75BFE4F81819281DA
:100A800053E0880F991F5A95E1F7B0E0A0E064E0C9
:100A9000B595A795979587956A95D1F702969C018C
:100AA0002F5F3F4F032E000C440B550B24193509C3
:100AB00046095709A4EBB0E00E945506A70196012C
:100AC00024193509460957090E9436062F50310965
:100AD000253B310514F024EB30E0C90137FF02C09B
:100AE00090E080E00E94EA0068EE73E080E090E031
:100AF0000E9413020E944502BC0190E080E0A50123
:100B000094010E9468062531310504F160E089E016
:100B10000E948F0160E08AE00E948F0161E08BE01B
:100B20000E948F0160E08CE00E948F018AE590E0D6
:100B30000E94EA0068EE73E080E090E00E941302F9
:100B400064EF71E080E090E00E941302011511054E
:100B500009F434CF0E94000031CF81110E94660158
:100B6000EE2DF0E0EE0FFF1FEA57FF4FA591B49175
:100B70008C91F82209F42DCF35CF61E089E00E94F5
:100B80008F0160E08AE00E948F0160E08BE00E94AC
:100B90008F0160E08CE00E948F0190E080E0C8CF80
:100BA00060E089E00E948F0160E08AE00E948F018E
:100BB00060E08BE00E948F0160E08CE00E948F017A
:100BC0008DE290E00E94EA0061E08EE00E948F01D9
:100BD00068EC70E080E090E00E94130260E08EE03C
:100BE0000E948F0168EC70E080E090E00E941302A8
:100BF000EBCF61E089E00E948F0160E08AE00E9413
:100C00008F0161E08BE00E948F0160E08CE00E9428
:100C10008F019CCF80912A018C3020F591E0980FB4
:100C200090932A0180936D0190E0FC01EE0FFF1F6D
:100C3000E80FF91FE75BFE4F88EB9BE0928381830F
:100C400044E063E086E391E00E948C0046E065E0CA
:100C500087E191E00E948C0048E067E084E091E049
:100C60000C948C008FEF80936D01EACF052E97FBDB
:100C70001EF400940E944D0657FD07D00E9468069E
:100C800007FC03D04EF40C944D06509540953095DA
:100C900021953F4F4F4F5F4F0895909580957095E8
:100CA00061957F4F8F4F9F4F08950E948A06A59FA1
:100CB000900DB49F900DA49F800D911D1124089557
:100CC000B7FF0C9455060E945506821B930B08959E
:100CD000A1E21A2EAA1BBB1BFD010DC0AA1FBB1F40
:100CE000EE1FFF1FA217B307E407F50720F0A21BB2
:100CF000B30BE40BF50B661F771F881F991F1A941F
:100D000069F760957095809590959B01AC01BD0148
:100D1000CF010895A29FB001B39FC001A39F700DA2
:100D2000811D1124911DB29F700D811D1124911DF3
:100D30000895991B79E004C0991F961708F0961B37
:100D4000881F7A95C9F780950895EE0FFF1F0590CB
:0A0D5000F491E02D0994F894FFCF10
:107E0000112484B714BE81FFF0D085E080938100F7
:107E100082E08093C00088E18093C10086E0809377
:107E2000C20080E18093C4008EE0C9D0259A86E02C
:107E300020E33CEF91E0309385002093840096BBD3
:107E4000B09BFECF1D9AA8958150A9F7CC24DD24C4
:107E500088248394B5E0AB2EA1E19A2EF3E0BF2EE7
:107E6000A2D0813461F49FD0082FAFD0023811F036
:107E7000013811F484E001C083E08DD089C08234E0
:107E800011F484E103C0853419F485E0A6D080C0E4
:107E9000853579F488D0E82EFF2485D0082F10E0AE
:107EA000102F00270E291F29000F111F8ED06801E7
:107EB0006FC0863521F484E090D080E0DECF843638
:107EC00009F040C070D06FD0082F6DD080E0C81688
:107ED00080E7D80618F4F601B7BEE895C0E0D1E017
:107EE00062D089930C17E1F7F0E0CF16F0E7DF06D8
:107EF00018F0F601B7BEE89568D007B600FCFDCFD4
:107F0000A601A0E0B1E02C9130E011968C91119780
:107F100090E0982F8827822B932B1296FA010C0160
:107F200087BEE89511244E5F5F4FF1E0A038BF0790
:107F300051F7F601A7BEE89507B600FCFDCF97BE46
:107F4000E89526C08437B1F42ED02DD0F82E2BD052
:107F50003CD0F601EF2C8F010F5F1F4F84911BD097
:107F6000EA94F801C1F70894C11CD11CFA94CF0C13
:107F7000D11C0EC0853739F428D08EE10CD085E9AC
:107F80000AD08FE07ACF813511F488E018D01DD067
:107F900080E101D065CF982F8091C00085FFFCCF94
:107FA0009093C60008958091C00087FFFCCF809118
:107FB000C00084FD01C0A8958091C6000895E0E648
:107FC000F0E098E1908380830895EDDF803219F02E
:107FD00088E0F5DFFFCF84E1DECF1F93182FE3DFCA
:107FE0001150E9F7F2DF1F91089580E0E8DFEE27F6
:047FF000FF270994CA
:027FFE00040479
:00000001FF
